{
  "_format": "hh-sol-artifact-1",
  "contractName": "AiART",
  "sourceName": "contracts/AiART.sol",
  "abi": [
    {
      "inputs": [],
      "stateMutability": "nonpayable",
      "type": "constructor"
    },
    {
      "anonymous": false,
      "inputs": [
        {
          "indexed": true,
          "internalType": "address",
          "name": "owner",
          "type": "address"
        },
        {
          "indexed": true,
          "internalType": "address",
          "name": "approved",
          "type": "address"
        },
        {
          "indexed": true,
          "internalType": "uint256",
          "name": "tokenId",
          "type": "uint256"
        }
      ],
      "name": "Approval",
      "type": "event"
    },
    {
      "anonymous": false,
      "inputs": [
        {
          "indexed": true,
          "internalType": "address",
          "name": "owner",
          "type": "address"
        },
        {
          "indexed": true,
          "internalType": "address",
          "name": "operator",
          "type": "address"
        },
        {
          "indexed": false,
          "internalType": "bool",
          "name": "approved",
          "type": "bool"
        }
      ],
      "name": "ApprovalForAll",
      "type": "event"
    },
    {
      "anonymous": false,
      "inputs": [
        {
          "indexed": false,
          "internalType": "uint256",
          "name": "_fromTokenId",
          "type": "uint256"
        },
        {
          "indexed": false,
          "internalType": "uint256",
          "name": "_toTokenId",
          "type": "uint256"
        }
      ],
      "name": "BatchMetadataUpdate",
      "type": "event"
    },
    {
      "anonymous": false,
      "inputs": [
        {
          "indexed": false,
          "internalType": "uint256",
          "name": "_tokenId",
          "type": "uint256"
        }
      ],
      "name": "MetadataUpdate",
      "type": "event"
    },
    {
      "anonymous": false,
      "inputs": [
        {
          "indexed": true,
          "internalType": "address",
          "name": "from",
          "type": "address"
        },
        {
          "indexed": true,
          "internalType": "address",
          "name": "to",
          "type": "address"
        },
        {
          "indexed": true,
          "internalType": "uint256",
          "name": "tokenId",
          "type": "uint256"
        }
      ],
      "name": "Transfer",
      "type": "event"
    },
    {
      "inputs": [
        {
          "internalType": "address",
          "name": "to",
          "type": "address"
        },
        {
          "internalType": "uint256",
          "name": "tokenId",
          "type": "uint256"
        }
      ],
      "name": "approve",
      "outputs": [],
      "stateMutability": "nonpayable",
      "type": "function"
    },
    {
      "inputs": [
        {
          "internalType": "address",
          "name": "owner",
          "type": "address"
        }
      ],
      "name": "balanceOf",
      "outputs": [
        {
          "internalType": "uint256",
          "name": "",
          "type": "uint256"
        }
      ],
      "stateMutability": "view",
      "type": "function"
    },
    {
      "inputs": [
        {
          "internalType": "uint256",
          "name": "tokenId",
          "type": "uint256"
        }
      ],
      "name": "getApproved",
      "outputs": [
        {
          "internalType": "address",
          "name": "",
          "type": "address"
        }
      ],
      "stateMutability": "view",
      "type": "function"
    },
    {
      "inputs": [
        {
          "internalType": "address",
          "name": "owner",
          "type": "address"
        },
        {
          "internalType": "address",
          "name": "operator",
          "type": "address"
        }
      ],
      "name": "isApprovedForAll",
      "outputs": [
        {
          "internalType": "bool",
          "name": "",
          "type": "bool"
        }
      ],
      "stateMutability": "view",
      "type": "function"
    },
    {
      "inputs": [
        {
          "internalType": "string",
          "name": "_tokenURI",
          "type": "string"
        }
      ],
      "name": "mintNFT",
      "outputs": [],
      "stateMutability": "nonpayable",
      "type": "function"
    },
    {
      "inputs": [],
      "name": "name",
      "outputs": [
        {
          "internalType": "string",
          "name": "",
          "type": "string"
        }
      ],
      "stateMutability": "view",
      "type": "function"
    },
    {
      "inputs": [
        {
          "internalType": "uint256",
          "name": "tokenId",
          "type": "uint256"
        }
      ],
      "name": "ownerOf",
      "outputs": [
        {
          "internalType": "address",
          "name": "",
          "type": "address"
        }
      ],
      "stateMutability": "view",
      "type": "function"
    },
    {
      "inputs": [
        {
          "internalType": "address",
          "name": "from",
          "type": "address"
        },
        {
          "internalType": "address",
          "name": "to",
          "type": "address"
        },
        {
          "internalType": "uint256",
          "name": "tokenId",
          "type": "uint256"
        }
      ],
      "name": "safeTransferFrom",
      "outputs": [],
      "stateMutability": "nonpayable",
      "type": "function"
    },
    {
      "inputs": [
        {
          "internalType": "address",
          "name": "from",
          "type": "address"
        },
        {
          "internalType": "address",
          "name": "to",
          "type": "address"
        },
        {
          "internalType": "uint256",
          "name": "tokenId",
          "type": "uint256"
        },
        {
          "internalType": "bytes",
          "name": "data",
          "type": "bytes"
        }
      ],
      "name": "safeTransferFrom",
      "outputs": [],
      "stateMutability": "nonpayable",
      "type": "function"
    },
    {
      "inputs": [
        {
          "internalType": "address",
          "name": "operator",
          "type": "address"
        },
        {
          "internalType": "bool",
          "name": "approved",
          "type": "bool"
        }
      ],
      "name": "setApprovalForAll",
      "outputs": [],
      "stateMutability": "nonpayable",
      "type": "function"
    },
    {
      "inputs": [
        {
          "internalType": "bytes4",
          "name": "interfaceId",
          "type": "bytes4"
        }
      ],
      "name": "supportsInterface",
      "outputs": [
        {
          "internalType": "bool",
          "name": "",
          "type": "bool"
        }
      ],
      "stateMutability": "view",
      "type": "function"
    },
    {
      "inputs": [],
      "name": "symbol",
      "outputs": [
        {
          "internalType": "string",
          "name": "",
          "type": "string"
        }
      ],
      "stateMutability": "view",
      "type": "function"
    },
    {
      "inputs": [
        {
          "internalType": "uint256",
          "name": "index",
          "type": "uint256"
        }
      ],
      "name": "tokenByIndex",
      "outputs": [
        {
          "internalType": "uint256",
          "name": "",
          "type": "uint256"
        }
      ],
      "stateMutability": "view",
      "type": "function"
    },
    {
      "inputs": [
        {
          "internalType": "address",
          "name": "owner",
          "type": "address"
        },
        {
          "internalType": "uint256",
          "name": "index",
          "type": "uint256"
        }
      ],
      "name": "tokenOfOwnerByIndex",
      "outputs": [
        {
          "internalType": "uint256",
          "name": "",
          "type": "uint256"
        }
      ],
      "stateMutability": "view",
      "type": "function"
    },
    {
      "inputs": [
        {
          "internalType": "uint256",
          "name": "tokenId",
          "type": "uint256"
        }
      ],
      "name": "tokenURI",
      "outputs": [
        {
          "internalType": "string",
          "name": "",
          "type": "string"
        }
      ],
      "stateMutability": "view",
      "type": "function"
    },
    {
      "inputs": [
        {
          "internalType": "address",
          "name": "_owner",
          "type": "address"
        }
      ],
      "name": "tokensOfOwner",
      "outputs": [
        {
          "internalType": "uint256[]",
          "name": "",
          "type": "uint256[]"
        }
      ],
      "stateMutability": "view",
      "type": "function"
    },
    {
      "inputs": [],
      "name": "totalSupply",
      "outputs": [
        {
          "internalType": "uint256",
          "name": "",
          "type": "uint256"
        }
      ],
      "stateMutability": "view",
      "type": "function"
    },
    {
      "inputs": [
        {
          "internalType": "address",
          "name": "from",
          "type": "address"
        },
        {
          "internalType": "address",
          "name": "to",
          "type": "address"
        },
        {
          "internalType": "uint256",
          "name": "tokenId",
          "type": "uint256"
        }
      ],
      "name": "transferFrom",
      "outputs": [],
      "stateMutability": "nonpayable",
      "type": "function"
    }
  ],
  "bytecode": "0x60806040523480156200001157600080fd5b506040518060400160405280600581526020017f41694152540000000000000000000000000000000000000000000000000000008152506040518060400160405280600581526020017f414941525400000000000000000000000000000000000000000000000000000081525081600090816200008f919062000324565b508060019081620000a1919062000324565b5050506200040b565b600081519050919050565b7f4e487b7100000000000000000000000000000000000000000000000000000000600052604160045260246000fd5b7f4e487b7100000000000000000000000000000000000000000000000000000000600052602260045260246000fd5b600060028204905060018216806200012c57607f821691505b602082108103620001425762000141620000e4565b5b50919050565b60008190508160005260206000209050919050565b60006020601f8301049050919050565b600082821b905092915050565b600060088302620001ac7fffffffffffffffffffffffffffffffffffffffffffffffffffffffffffffffff826200016d565b620001b886836200016d565b95508019841693508086168417925050509392505050565b6000819050919050565b6000819050919050565b600062000205620001ff620001f984620001d0565b620001da565b620001d0565b9050919050565b6000819050919050565b6200022183620001e4565b6200023962000230826200020c565b8484546200017a565b825550505050565b600090565b6200025062000241565b6200025d81848462000216565b505050565b5b8181101562000285576200027960008262000246565b60018101905062000263565b5050565b601f821115620002d4576200029e8162000148565b620002a9846200015d565b81016020851015620002b9578190505b620002d1620002c8856200015d565b83018262000262565b50505b505050565b600082821c905092915050565b6000620002f960001984600802620002d9565b1980831691505092915050565b6000620003148383620002e6565b9150826002028217905092915050565b6200032f82620000aa565b67ffffffffffffffff8111156200034b576200034a620000b5565b5b62000357825462000113565b6200036482828562000289565b600060209050601f8311600181146200039c576000841562000387578287015190505b62000393858262000306565b86555062000403565b601f198416620003ac8662000148565b60005b82811015620003d657848901518255600182019150602085019450602081019050620003af565b86831015620003f65784890151620003f2601f891682620002e6565b8355505b6001600288020188555050505b505050505050565b6135ec806200041b6000396000f3fe608060405234801561001057600080fd5b50600436106101165760003560e01c80636352211e116100a2578063a22cb46511610071578063a22cb46514610319578063b88d4fde14610335578063c87b56dd14610351578063e985e9c514610381578063fb37e883146103b157610116565b80636352211e1461026b57806370a082311461029b5780638462151c146102cb57806395d89b41146102fb57610116565b806318160ddd116100e957806318160ddd146101b557806323b872dd146101d35780632f745c59146101ef57806342842e0e1461021f5780634f6ccce71461023b57610116565b806301ffc9a71461011b57806306fdde031461014b578063081812fc14610169578063095ea7b314610199575b600080fd5b6101356004803603810190610130919061214f565b6103cd565b6040516101429190612197565b60405180910390f35b6101536103df565b6040516101609190612242565b60405180910390f35b610183600480360381019061017e919061229a565b610471565b6040516101909190612308565b60405180910390f35b6101b360048036038101906101ae919061234f565b6104b7565b005b6101bd6105ce565b6040516101ca919061239e565b60405180910390f35b6101ed60048036038101906101e891906123b9565b6105db565b005b6102096004803603810190610204919061234f565b61063b565b604051610216919061239e565b60405180910390f35b610239600480360381019061023491906123b9565b6106e0565b005b6102556004803603810190610250919061229a565b610700565b604051610262919061239e565b60405180910390f35b6102856004803603810190610280919061229a565b610771565b6040516102929190612308565b60405180910390f35b6102b560048036038101906102b0919061240c565b6107f7565b6040516102c2919061239e565b60405180910390f35b6102e560048036038101906102e0919061240c565b6108ae565b6040516102f291906124f7565b60405180910390f35b610303610956565b6040516103109190612242565b60405180910390f35b610333600480360381019061032e9190612545565b6109e8565b005b61034f600480360381019061034a91906126ba565b6109fe565b005b61036b6004803603810190610366919061229a565b610a60565b6040516103789190612242565b60405180910390f35b61039b6004803603810190610396919061273d565b610a72565b6040516103a89190612197565b60405180910390f35b6103cb60048036038101906103c6919061281e565b610b06565b005b60006103d882610b3d565b9050919050565b6060600080546103ee90612896565b80601f016020809104026020016040519081016040528092919081815260200182805461041a90612896565b80156104675780601f1061043c57610100808354040283529160200191610467565b820191906000526020600020905b81548152906001019060200180831161044a57829003601f168201915b5050505050905090565b600061047c82610bb7565b6004600083815260200190815260200160002060009054906101000a900473ffffffffffffffffffffffffffffffffffffffff169050919050565b60006104c282610771565b90508073ffffffffffffffffffffffffffffffffffffffff168373ffffffffffffffffffffffffffffffffffffffff1603610532576040517f08c379a000000000000000000000000000000000000000000000000000000000815260040161052990612939565b60405180910390fd5b8073ffffffffffffffffffffffffffffffffffffffff16610551610c02565b73ffffffffffffffffffffffffffffffffffffffff161480610580575061057f8161057a610c02565b610a72565b5b6105bf576040517f08c379a00000000000000000000000000000000000000000000000000000000081526004016105b6906129cb565b60405180910390fd5b6105c98383610c0a565b505050565b6000600980549050905090565b6105ec6105e6610c02565b82610cc3565b61062b576040517f08c379a000000000000000000000000000000000000000000000000000000000815260040161062290612a5d565b60405180910390fd5b610636838383610d58565b505050565b6000610646836107f7565b8210610687576040517f08c379a000000000000000000000000000000000000000000000000000000000815260040161067e90612aef565b60405180910390fd5b600760008473ffffffffffffffffffffffffffffffffffffffff1673ffffffffffffffffffffffffffffffffffffffff168152602001908152602001600020600083815260200190815260200160002054905092915050565b6106fb838383604051806020016040528060008152506109fe565b505050565b600061070a6105ce565b821061074b576040517f08c379a000000000000000000000000000000000000000000000000000000000815260040161074290612b81565b60405180910390fd5b6009828154811061075f5761075e612ba1565b5b90600052602060002001549050919050565b60008061077d83611051565b9050600073ffffffffffffffffffffffffffffffffffffffff168173ffffffffffffffffffffffffffffffffffffffff16036107ee576040517f08c379a00000000000000000000000000000000000000000000000000000000081526004016107e590612c1c565b60405180910390fd5b80915050919050565b60008073ffffffffffffffffffffffffffffffffffffffff168273ffffffffffffffffffffffffffffffffffffffff1603610867576040517f08c379a000000000000000000000000000000000000000000000000000000000815260040161085e90612cae565b60405180910390fd5b600360008373ffffffffffffffffffffffffffffffffffffffff1673ffffffffffffffffffffffffffffffffffffffff168152602001908152602001600020549050919050565b606060006108bb836107f7565b905060008167ffffffffffffffff8111156108d9576108d861258f565b5b6040519080825280602002602001820160405280156109075781602001602082028036833780820191505090505b50905060005b8281101561094b5761091f858261063b565b82828151811061093257610931612ba1565b5b602002602001018181525050808060010191505061090d565b508092505050919050565b60606001805461096590612896565b80601f016020809104026020016040519081016040528092919081815260200182805461099190612896565b80156109de5780601f106109b3576101008083540402835291602001916109de565b820191906000526020600020905b8154815290600101906020018083116109c157829003601f168201915b5050505050905090565b6109fa6109f3610c02565b838361108e565b5050565b610a0f610a09610c02565b83610cc3565b610a4e576040517f08c379a0000000000000000000000000000000000000000000000000000000008152600401610a4590612a5d565b60405180910390fd5b610a5a848484846111fa565b50505050565b6060610a6b82611256565b9050919050565b6000600560008473ffffffffffffffffffffffffffffffffffffffff1673ffffffffffffffffffffffffffffffffffffffff16815260200190815260200160002060008373ffffffffffffffffffffffffffffffffffffffff1673ffffffffffffffffffffffffffffffffffffffff16815260200190815260200160002060009054906101000a900460ff16905092915050565b600b6000815480929190610b1990612cfd565b91905055506000600b549050610b2f3382611368565b610b398183611585565b5050565b60007f780e9d63000000000000000000000000000000000000000000000000000000007bffffffffffffffffffffffffffffffffffffffffffffffffffffffff1916827bffffffffffffffffffffffffffffffffffffffffffffffffffffffff19161480610bb05750610baf82611629565b5b9050919050565b610bc08161168a565b610bff576040517f08c379a0000000000000000000000000000000000000000000000000000000008152600401610bf690612c1c565b60405180910390fd5b50565b600033905090565b816004600083815260200190815260200160002060006101000a81548173ffffffffffffffffffffffffffffffffffffffff021916908373ffffffffffffffffffffffffffffffffffffffff160217905550808273ffffffffffffffffffffffffffffffffffffffff16610c7d83610771565b73ffffffffffffffffffffffffffffffffffffffff167f8c5be1e5ebec7d5bd14f71427d1e84f3dd0314c0f7b2291e5b200ac8c7c3b92560405160405180910390a45050565b600080610ccf83610771565b90508073ffffffffffffffffffffffffffffffffffffffff168473ffffffffffffffffffffffffffffffffffffffff161480610d115750610d108185610a72565b5b80610d4f57508373ffffffffffffffffffffffffffffffffffffffff16610d3784610471565b73ffffffffffffffffffffffffffffffffffffffff16145b91505092915050565b8273ffffffffffffffffffffffffffffffffffffffff16610d7882610771565b73ffffffffffffffffffffffffffffffffffffffff1614610dce576040517f08c379a0000000000000000000000000000000000000000000000000000000008152600401610dc590612db7565b60405180910390fd5b600073ffffffffffffffffffffffffffffffffffffffff168273ffffffffffffffffffffffffffffffffffffffff1603610e3d576040517f08c379a0000000000000000000000000000000000000000000000000000000008152600401610e3490612e49565b60405180910390fd5b610e4a83838360016116cb565b8273ffffffffffffffffffffffffffffffffffffffff16610e6a82610771565b73ffffffffffffffffffffffffffffffffffffffff1614610ec0576040517f08c379a0000000000000000000000000000000000000000000000000000000008152600401610eb790612db7565b60405180910390fd5b6004600082815260200190815260200160002060006101000a81549073ffffffffffffffffffffffffffffffffffffffff02191690556001600360008573ffffffffffffffffffffffffffffffffffffffff1673ffffffffffffffffffffffffffffffffffffffff168152602001908152602001600020600082825403925050819055506001600360008473ffffffffffffffffffffffffffffffffffffffff1673ffffffffffffffffffffffffffffffffffffffff16815260200190815260200160002060008282540192505081905550816002600083815260200190815260200160002060006101000a81548173ffffffffffffffffffffffffffffffffffffffff021916908373ffffffffffffffffffffffffffffffffffffffff160217905550808273ffffffffffffffffffffffffffffffffffffffff168473ffffffffffffffffffffffffffffffffffffffff167fddf252ad1be2c89b69c2b068fc378daa952ba7f163c4a11628f55a4df523b3ef60405160405180910390a461104c83838360016116dd565b505050565b60006002600083815260200190815260200160002060009054906101000a900473ffffffffffffffffffffffffffffffffffffffff169050919050565b8173ffffffffffffffffffffffffffffffffffffffff168373ffffffffffffffffffffffffffffffffffffffff16036110fc576040517f08c379a00000000000000000000000000000000000000000000000000000000081526004016110f390612eb5565b60405180910390fd5b80600560008573ffffffffffffffffffffffffffffffffffffffff1673ffffffffffffffffffffffffffffffffffffffff16815260200190815260200160002060008473ffffffffffffffffffffffffffffffffffffffff1673ffffffffffffffffffffffffffffffffffffffff16815260200190815260200160002060006101000a81548160ff0219169083151502179055508173ffffffffffffffffffffffffffffffffffffffff168373ffffffffffffffffffffffffffffffffffffffff167f17307eab39ab6107e8899845ad3d59bd9653f200f220920489ca2b5937696c31836040516111ed9190612197565b60405180910390a3505050565b611205848484610d58565b611211848484846116e3565b611250576040517f08c379a000000000000000000000000000000000000000000000000000000000815260040161124790612f47565b60405180910390fd5b50505050565b606061126182610bb7565b600060066000848152602001908152602001600020805461128190612896565b80601f01602080910402602001604051908101604052809291908181526020018280546112ad90612896565b80156112fa5780601f106112cf576101008083540402835291602001916112fa565b820191906000526020600020905b8154815290600101906020018083116112dd57829003601f168201915b50505050509050600061130b61186a565b90506000815103611320578192505050611363565b60008251111561135557808260405160200161133d929190612fa3565b60405160208183030381529060405292505050611363565b61135e84611881565b925050505b919050565b600073ffffffffffffffffffffffffffffffffffffffff168273ffffffffffffffffffffffffffffffffffffffff16036113d7576040517f08c379a00000000000000000000000000000000000000000000000000000000081526004016113ce90613013565b60405180910390fd5b6113e08161168a565b15611420576040517f08c379a00000000000000000000000000000000000000000000000000000000081526004016114179061307f565b60405180910390fd5b61142e6000838360016116cb565b6114378161168a565b15611477576040517f08c379a000000000000000000000000000000000000000000000000000000000815260040161146e9061307f565b60405180910390fd5b6001600360008473ffffffffffffffffffffffffffffffffffffffff1673ffffffffffffffffffffffffffffffffffffffff16815260200190815260200160002060008282540192505081905550816002600083815260200190815260200160002060006101000a81548173ffffffffffffffffffffffffffffffffffffffff021916908373ffffffffffffffffffffffffffffffffffffffff160217905550808273ffffffffffffffffffffffffffffffffffffffff16600073ffffffffffffffffffffffffffffffffffffffff167fddf252ad1be2c89b69c2b068fc378daa952ba7f163c4a11628f55a4df523b3ef60405160405180910390a46115816000838360016116dd565b5050565b61158e8261168a565b6115cd576040517f08c379a00000000000000000000000000000000000000000000000000000000081526004016115c490613111565b60405180910390fd5b806006600084815260200190815260200160002090816115ed91906132dd565b507ff8e1a15aba9398e019f0b49df1a4fde98ee17ae345cb5f6b5e2c27f5033e8ce78260405161161d919061239e565b60405180910390a15050565b6000634906490660e01b7bffffffffffffffffffffffffffffffffffffffffffffffffffffffff1916827bffffffffffffffffffffffffffffffffffffffffffffffffffffffff191614806116835750611682826118e9565b5b9050919050565b60008073ffffffffffffffffffffffffffffffffffffffff166116ac83611051565b73ffffffffffffffffffffffffffffffffffffffff1614159050919050565b6116d7848484846119cb565b50505050565b50505050565b60006117048473ffffffffffffffffffffffffffffffffffffffff16611b29565b1561185d578373ffffffffffffffffffffffffffffffffffffffff1663150b7a0261172d610c02565b8786866040518563ffffffff1660e01b815260040161174f9493929190613404565b6020604051808303816000875af192505050801561178b57506040513d601f19601f820116820180604052508101906117889190613465565b60015b61180d573d80600081146117bb576040519150601f19603f3d011682016040523d82523d6000602084013e6117c0565b606091505b506000815103611805576040517f08c379a00000000000000000000000000000000000000000000000000000000081526004016117fc90612f47565b60405180910390fd5b805181602001fd5b63150b7a0260e01b7bffffffffffffffffffffffffffffffffffffffffffffffffffffffff1916817bffffffffffffffffffffffffffffffffffffffffffffffffffffffff191614915050611862565b600190505b949350505050565b606060405180602001604052806000815250905090565b606061188c82610bb7565b600061189661186a565b905060008151116118b657604051806020016040528060008152506118e1565b806118c084611b4c565b6040516020016118d1929190612fa3565b6040516020818303038152906040525b915050919050565b60007f80ac58cd000000000000000000000000000000000000000000000000000000007bffffffffffffffffffffffffffffffffffffffffffffffffffffffff1916827bffffffffffffffffffffffffffffffffffffffffffffffffffffffff191614806119b457507f5b5e139f000000000000000000000000000000000000000000000000000000007bffffffffffffffffffffffffffffffffffffffffffffffffffffffff1916827bffffffffffffffffffffffffffffffffffffffffffffffffffffffff1916145b806119c457506119c382611c1a565b5b9050919050565b6119d784848484611c84565b6001811115611a1b576040517f08c379a0000000000000000000000000000000000000000000000000000000008152600401611a1290613504565b60405180910390fd5b6000829050600073ffffffffffffffffffffffffffffffffffffffff168573ffffffffffffffffffffffffffffffffffffffff1603611a6257611a5d81611c8a565b611aa1565b8373ffffffffffffffffffffffffffffffffffffffff168573ffffffffffffffffffffffffffffffffffffffff1614611aa057611a9f8582611cd3565b5b5b600073ffffffffffffffffffffffffffffffffffffffff168473ffffffffffffffffffffffffffffffffffffffff1603611ae357611ade81611e40565b611b22565b8473ffffffffffffffffffffffffffffffffffffffff168473ffffffffffffffffffffffffffffffffffffffff1614611b2157611b208482611f11565b5b5b5050505050565b6000808273ffffffffffffffffffffffffffffffffffffffff163b119050919050565b606060006001611b5b84611f90565b01905060008167ffffffffffffffff811115611b7a57611b7961258f565b5b6040519080825280601f01601f191660200182016040528015611bac5781602001600182028036833780820191505090505b509050600082602001820190505b600115611c0f578080600190039150507f3031323334353637383961626364656600000000000000000000000000000000600a86061a8153600a8581611c0357611c02613524565b5b04945060008503611bba575b819350505050919050565b60007f01ffc9a7000000000000000000000000000000000000000000000000000000007bffffffffffffffffffffffffffffffffffffffffffffffffffffffff1916827bffffffffffffffffffffffffffffffffffffffffffffffffffffffff1916149050919050565b50505050565b600980549050600a600083815260200190815260200160002081905550600981908060018154018082558091505060019003906000526020600020016000909190919091505550565b60006001611ce0846107f7565b611cea9190613553565b9050600060086000848152602001908152602001600020549050818114611dcf576000600760008673ffffffffffffffffffffffffffffffffffffffff1673ffffffffffffffffffffffffffffffffffffffff168152602001908152602001600020600084815260200190815260200160002054905080600760008773ffffffffffffffffffffffffffffffffffffffff1673ffffffffffffffffffffffffffffffffffffffff168152602001908152602001600020600084815260200190815260200160002081905550816008600083815260200190815260200160002081905550505b6008600084815260200190815260200160002060009055600760008573ffffffffffffffffffffffffffffffffffffffff1673ffffffffffffffffffffffffffffffffffffffff16815260200190815260200160002060008381526020019081526020016000206000905550505050565b60006001600980549050611e549190613553565b90506000600a6000848152602001908152602001600020549050600060098381548110611e8457611e83612ba1565b5b906000526020600020015490508060098381548110611ea657611ea5612ba1565b5b906000526020600020018190555081600a600083815260200190815260200160002081905550600a6000858152602001908152602001600020600090556009805480611ef557611ef4613587565b5b6001900381819060005260206000200160009055905550505050565b6000611f1c836107f7565b905081600760008573ffffffffffffffffffffffffffffffffffffffff1673ffffffffffffffffffffffffffffffffffffffff168152602001908152602001600020600083815260200190815260200160002081905550806008600084815260200190815260200160002081905550505050565b600080600090507a184f03e93ff9f4daa797ed6e38ed64bf6a1f0100000000000000008310611fee577a184f03e93ff9f4daa797ed6e38ed64bf6a1f0100000000000000008381611fe457611fe3613524565b5b0492506040810190505b6d04ee2d6d415b85acef8100000000831061202b576d04ee2d6d415b85acef8100000000838161202157612020613524565b5b0492506020810190505b662386f26fc10000831061205a57662386f26fc1000083816120505761204f613524565b5b0492506010810190505b6305f5e1008310612083576305f5e100838161207957612078613524565b5b0492506008810190505b61271083106120a857612710838161209e5761209d613524565b5b0492506004810190505b606483106120cb57606483816120c1576120c0613524565b5b0492506002810190505b600a83106120da576001810190505b80915050919050565b6000604051905090565b600080fd5b600080fd5b60007fffffffff0000000000000000000000000000000000000000000000000000000082169050919050565b61212c816120f7565b811461213757600080fd5b50565b60008135905061214981612123565b92915050565b600060208284031215612165576121646120ed565b5b60006121738482850161213a565b91505092915050565b60008115159050919050565b6121918161217c565b82525050565b60006020820190506121ac6000830184612188565b92915050565b600081519050919050565b600082825260208201905092915050565b60005b838110156121ec5780820151818401526020810190506121d1565b60008484015250505050565b6000601f19601f8301169050919050565b6000612214826121b2565b61221e81856121bd565b935061222e8185602086016121ce565b612237816121f8565b840191505092915050565b6000602082019050818103600083015261225c8184612209565b905092915050565b6000819050919050565b61227781612264565b811461228257600080fd5b50565b6000813590506122948161226e565b92915050565b6000602082840312156122b0576122af6120ed565b5b60006122be84828501612285565b91505092915050565b600073ffffffffffffffffffffffffffffffffffffffff82169050919050565b60006122f2826122c7565b9050919050565b612302816122e7565b82525050565b600060208201905061231d60008301846122f9565b92915050565b61232c816122e7565b811461233757600080fd5b50565b60008135905061234981612323565b92915050565b60008060408385031215612366576123656120ed565b5b60006123748582860161233a565b925050602061238585828601612285565b9150509250929050565b61239881612264565b82525050565b60006020820190506123b3600083018461238f565b92915050565b6000806000606084860312156123d2576123d16120ed565b5b60006123e08682870161233a565b93505060206123f18682870161233a565b925050604061240286828701612285565b9150509250925092565b600060208284031215612422576124216120ed565b5b60006124308482850161233a565b91505092915050565b600081519050919050565b600082825260208201905092915050565b6000819050602082019050919050565b61246e81612264565b82525050565b60006124808383612465565b60208301905092915050565b6000602082019050919050565b60006124a482612439565b6124ae8185612444565b93506124b983612455565b8060005b838110156124ea5781516124d18882612474565b97506124dc8361248c565b9250506001810190506124bd565b5085935050505092915050565b600060208201905081810360008301526125118184612499565b905092915050565b6125228161217c565b811461252d57600080fd5b50565b60008135905061253f81612519565b92915050565b6000806040838503121561255c5761255b6120ed565b5b600061256a8582860161233a565b925050602061257b85828601612530565b9150509250929050565b600080fd5b600080fd5b7f4e487b7100000000000000000000000000000000000000000000000000000000600052604160045260246000fd5b6125c7826121f8565b810181811067ffffffffffffffff821117156125e6576125e561258f565b5b80604052505050565b60006125f96120e3565b905061260582826125be565b919050565b600067ffffffffffffffff8211156126255761262461258f565b5b61262e826121f8565b9050602081019050919050565b82818337600083830152505050565b600061265d6126588461260a565b6125ef565b9050828152602081018484840111156126795761267861258a565b5b61268484828561263b565b509392505050565b600082601f8301126126a1576126a0612585565b5b81356126b184826020860161264a565b91505092915050565b600080600080608085870312156126d4576126d36120ed565b5b60006126e28782880161233a565b94505060206126f38782880161233a565b935050604061270487828801612285565b925050606085013567ffffffffffffffff811115612725576127246120f2565b5b6127318782880161268c565b91505092959194509250565b60008060408385031215612754576127536120ed565b5b60006127628582860161233a565b92505060206127738582860161233a565b9150509250929050565b600067ffffffffffffffff8211156127985761279761258f565b5b6127a1826121f8565b9050602081019050919050565b60006127c16127bc8461277d565b6125ef565b9050828152602081018484840111156127dd576127dc61258a565b5b6127e884828561263b565b509392505050565b600082601f83011261280557612804612585565b5b81356128158482602086016127ae565b91505092915050565b600060208284031215612834576128336120ed565b5b600082013567ffffffffffffffff811115612852576128516120f2565b5b61285e848285016127f0565b91505092915050565b7f4e487b7100000000000000000000000000000000000000000000000000000000600052602260045260246000fd5b600060028204905060018216806128ae57607f821691505b6020821081036128c1576128c0612867565b5b50919050565b7f4552433732313a20617070726f76616c20746f2063757272656e74206f776e6560008201527f7200000000000000000000000000000000000000000000000000000000000000602082015250565b60006129236021836121bd565b915061292e826128c7565b604082019050919050565b6000602082019050818103600083015261295281612916565b9050919050565b7f4552433732313a20617070726f76652063616c6c6572206973206e6f7420746f60008201527f6b656e206f776e6572206f7220617070726f76656420666f7220616c6c000000602082015250565b60006129b5603d836121bd565b91506129c082612959565b604082019050919050565b600060208201905081810360008301526129e4816129a8565b9050919050565b7f4552433732313a2063616c6c6572206973206e6f7420746f6b656e206f776e6560008201527f72206f7220617070726f76656400000000000000000000000000000000000000602082015250565b6000612a47602d836121bd565b9150612a52826129eb565b604082019050919050565b60006020820190508181036000830152612a7681612a3a565b9050919050565b7f455243373231456e756d657261626c653a206f776e657220696e646578206f7560008201527f74206f6620626f756e6473000000000000000000000000000000000000000000602082015250565b6000612ad9602b836121bd565b9150612ae482612a7d565b604082019050919050565b60006020820190508181036000830152612b0881612acc565b9050919050565b7f455243373231456e756d657261626c653a20676c6f62616c20696e646578206f60008201527f7574206f6620626f756e64730000000000000000000000000000000000000000602082015250565b6000612b6b602c836121bd565b9150612b7682612b0f565b604082019050919050565b60006020820190508181036000830152612b9a81612b5e565b9050919050565b7f4e487b7100000000000000000000000000000000000000000000000000000000600052603260045260246000fd5b7f4552433732313a20696e76616c696420746f6b656e2049440000000000000000600082015250565b6000612c066018836121bd565b9150612c1182612bd0565b602082019050919050565b60006020820190508181036000830152612c3581612bf9565b9050919050565b7f4552433732313a2061646472657373207a65726f206973206e6f74206120766160008201527f6c6964206f776e65720000000000000000000000000000000000000000000000602082015250565b6000612c986029836121bd565b9150612ca382612c3c565b604082019050919050565b60006020820190508181036000830152612cc781612c8b565b9050919050565b7f4e487b7100000000000000000000000000000000000000000000000000000000600052601160045260246000fd5b6000612d0882612264565b91507fffffffffffffffffffffffffffffffffffffffffffffffffffffffffffffffff8203612d3a57612d39612cce565b5b600182019050919050565b7f4552433732313a207472616e736665722066726f6d20696e636f72726563742060008201527f6f776e6572000000000000000000000000000000000000000000000000000000602082015250565b6000612da16025836121bd565b9150612dac82612d45565b604082019050919050565b60006020820190508181036000830152612dd081612d94565b9050919050565b7f4552433732313a207472616e7366657220746f20746865207a65726f2061646460008201527f7265737300000000000000000000000000000000000000000000000000000000602082015250565b6000612e336024836121bd565b9150612e3e82612dd7565b604082019050919050565b60006020820190508181036000830152612e6281612e26565b9050919050565b7f4552433732313a20617070726f766520746f2063616c6c657200000000000000600082015250565b6000612e9f6019836121bd565b9150612eaa82612e69565b602082019050919050565b60006020820190508181036000830152612ece81612e92565b9050919050565b7f4552433732313a207472616e7366657220746f206e6f6e20455243373231526560008201527f63656976657220696d706c656d656e7465720000000000000000000000000000602082015250565b6000612f316032836121bd565b9150612f3c82612ed5565b604082019050919050565b60006020820190508181036000830152612f6081612f24565b9050919050565b600081905092915050565b6000612f7d826121b2565b612f878185612f67565b9350612f978185602086016121ce565b80840191505092915050565b6000612faf8285612f72565b9150612fbb8284612f72565b91508190509392505050565b7f4552433732313a206d696e7420746f20746865207a65726f2061646472657373600082015250565b6000612ffd6020836121bd565b915061300882612fc7565b602082019050919050565b6000602082019050818103600083015261302c81612ff0565b9050919050565b7f4552433732313a20746f6b656e20616c7265616479206d696e74656400000000600082015250565b6000613069601c836121bd565b915061307482613033565b602082019050919050565b600060208201905081810360008301526130988161305c565b9050919050565b7f45524337323155524953746f726167653a2055524920736574206f66206e6f6e60008201527f6578697374656e7420746f6b656e000000000000000000000000000000000000602082015250565b60006130fb602e836121bd565b91506131068261309f565b604082019050919050565b6000602082019050818103600083015261312a816130ee565b9050919050565b60008190508160005260206000209050919050565b60006020601f8301049050919050565b600082821b905092915050565b6000600883026131937fffffffffffffffffffffffffffffffffffffffffffffffffffffffffffffffff82613156565b61319d8683613156565b95508019841693508086168417925050509392505050565b6000819050919050565b60006131da6131d56131d084612264565b6131b5565b612264565b9050919050565b6000819050919050565b6131f4836131bf565b613208613200826131e1565b848454613163565b825550505050565b600090565b61321d613210565b6132288184846131eb565b505050565b5b8181101561324c57613241600082613215565b60018101905061322e565b5050565b601f8211156132915761326281613131565b61326b84613146565b8101602085101561327a578190505b61328e61328685613146565b83018261322d565b50505b505050565b600082821c905092915050565b60006132b460001984600802613296565b1980831691505092915050565b60006132cd83836132a3565b9150826002028217905092915050565b6132e6826121b2565b67ffffffffffffffff8111156132ff576132fe61258f565b5b6133098254612896565b613314828285613250565b600060209050601f8311600181146133475760008415613335578287015190505b61333f85826132c1565b8655506133a7565b601f19841661335586613131565b60005b8281101561337d57848901518255600182019150602085019450602081019050613358565b8683101561339a5784890151613396601f8916826132a3565b8355505b6001600288020188555050505b505050505050565b600081519050919050565b600082825260208201905092915050565b60006133d6826133af565b6133e081856133ba565b93506133f08185602086016121ce565b6133f9816121f8565b840191505092915050565b600060808201905061341960008301876122f9565b61342660208301866122f9565b613433604083018561238f565b818103606083015261344581846133cb565b905095945050505050565b60008151905061345f81612123565b92915050565b60006020828403121561347b5761347a6120ed565b5b600061348984828501613450565b91505092915050565b7f455243373231456e756d657261626c653a20636f6e736563757469766520747260008201527f616e7366657273206e6f7420737570706f727465640000000000000000000000602082015250565b60006134ee6035836121bd565b91506134f982613492565b604082019050919050565b6000602082019050818103600083015261351d816134e1565b9050919050565b7f4e487b7100000000000000000000000000000000000000000000000000000000600052601260045260246000fd5b600061355e82612264565b915061356983612264565b925082820390508181111561358157613580612cce565b5b92915050565b7f4e487b7100000000000000000000000000000000000000000000000000000000600052603160045260246000fdfea2646970667358221220cc4d8af9abc108d3f311334db68f53cdb4016d8505b7b181fc2f841b4af6d05c64736f6c63430008180033",
  "linkReferences": {},
  "deployedLinkReferences": {}
}