{
  "_format": "hh-sol-artifact-1",
  "contractName": "AiART",
  "sourceName": "contracts/AiART.sol",
  "abi": [
    {
      "inputs": [],
      "stateMutability": "nonpayable",
      "type": "constructor"
    },
    {
      "inputs": [
        {
          "internalType": "address",
          "name": "sender",
          "type": "address"
        },
        {
          "internalType": "uint256",
          "name": "tokenId",
          "type": "uint256"
        },
        {
          "internalType": "address",
          "name": "owner",
          "type": "address"
        }
      ],
      "name": "ERC721IncorrectOwner",
      "type": "error"
    },
    {
      "inputs": [
        {
          "internalType": "address",
          "name": "operator",
          "type": "address"
        },
        {
          "internalType": "uint256",
          "name": "tokenId",
          "type": "uint256"
        }
      ],
      "name": "ERC721InsufficientApproval",
      "type": "error"
    },
    {
      "inputs": [
        {
          "internalType": "address",
          "name": "approver",
          "type": "address"
        }
      ],
      "name": "ERC721InvalidApprover",
      "type": "error"
    },
    {
      "inputs": [
        {
          "internalType": "address",
          "name": "operator",
          "type": "address"
        }
      ],
      "name": "ERC721InvalidOperator",
      "type": "error"
    },
    {
      "inputs": [
        {
          "internalType": "address",
          "name": "owner",
          "type": "address"
        }
      ],
      "name": "ERC721InvalidOwner",
      "type": "error"
    },
    {
      "inputs": [
        {
          "internalType": "address",
          "name": "receiver",
          "type": "address"
        }
      ],
      "name": "ERC721InvalidReceiver",
      "type": "error"
    },
    {
      "inputs": [
        {
          "internalType": "address",
          "name": "sender",
          "type": "address"
        }
      ],
      "name": "ERC721InvalidSender",
      "type": "error"
    },
    {
      "inputs": [
        {
          "internalType": "uint256",
          "name": "tokenId",
          "type": "uint256"
        }
      ],
      "name": "ERC721NonexistentToken",
      "type": "error"
    },
    {
      "anonymous": false,
      "inputs": [
        {
          "indexed": true,
          "internalType": "address",
          "name": "owner",
          "type": "address"
        },
        {
          "indexed": true,
          "internalType": "address",
          "name": "approved",
          "type": "address"
        },
        {
          "indexed": true,
          "internalType": "uint256",
          "name": "tokenId",
          "type": "uint256"
        }
      ],
      "name": "Approval",
      "type": "event"
    },
    {
      "anonymous": false,
      "inputs": [
        {
          "indexed": true,
          "internalType": "address",
          "name": "owner",
          "type": "address"
        },
        {
          "indexed": true,
          "internalType": "address",
          "name": "operator",
          "type": "address"
        },
        {
          "indexed": false,
          "internalType": "bool",
          "name": "approved",
          "type": "bool"
        }
      ],
      "name": "ApprovalForAll",
      "type": "event"
    },
    {
      "anonymous": false,
      "inputs": [
        {
          "indexed": false,
          "internalType": "uint256",
          "name": "_fromTokenId",
          "type": "uint256"
        },
        {
          "indexed": false,
          "internalType": "uint256",
          "name": "_toTokenId",
          "type": "uint256"
        }
      ],
      "name": "BatchMetadataUpdate",
      "type": "event"
    },
    {
      "anonymous": false,
      "inputs": [
        {
          "indexed": false,
          "internalType": "uint256",
          "name": "_tokenId",
          "type": "uint256"
        }
      ],
      "name": "MetadataUpdate",
      "type": "event"
    },
    {
      "anonymous": false,
      "inputs": [
        {
          "indexed": true,
          "internalType": "address",
          "name": "from",
          "type": "address"
        },
        {
          "indexed": true,
          "internalType": "address",
          "name": "to",
          "type": "address"
        },
        {
          "indexed": true,
          "internalType": "uint256",
          "name": "tokenId",
          "type": "uint256"
        }
      ],
      "name": "Transfer",
      "type": "event"
    },
    {
      "inputs": [
        {
          "internalType": "address",
          "name": "to",
          "type": "address"
        },
        {
          "internalType": "uint256",
          "name": "tokenId",
          "type": "uint256"
        }
      ],
      "name": "approve",
      "outputs": [],
      "stateMutability": "nonpayable",
      "type": "function"
    },
    {
      "inputs": [
        {
          "internalType": "address",
          "name": "owner",
          "type": "address"
        }
      ],
      "name": "balanceOf",
      "outputs": [
        {
          "internalType": "uint256",
          "name": "",
          "type": "uint256"
        }
      ],
      "stateMutability": "view",
      "type": "function"
    },
    {
      "inputs": [
        {
          "internalType": "uint256",
          "name": "tokenId",
          "type": "uint256"
        }
      ],
      "name": "getApproved",
      "outputs": [
        {
          "internalType": "address",
          "name": "",
          "type": "address"
        }
      ],
      "stateMutability": "view",
      "type": "function"
    },
    {
      "inputs": [
        {
          "internalType": "address",
          "name": "owner",
          "type": "address"
        },
        {
          "internalType": "address",
          "name": "operator",
          "type": "address"
        }
      ],
      "name": "isApprovedForAll",
      "outputs": [
        {
          "internalType": "bool",
          "name": "",
          "type": "bool"
        }
      ],
      "stateMutability": "view",
      "type": "function"
    },
    {
      "inputs": [
        {
          "internalType": "string",
          "name": "_tokenURI",
          "type": "string"
        }
      ],
      "name": "mintNFT",
      "outputs": [],
      "stateMutability": "nonpayable",
      "type": "function"
    },
    {
      "inputs": [],
      "name": "name",
      "outputs": [
        {
          "internalType": "string",
          "name": "",
          "type": "string"
        }
      ],
      "stateMutability": "view",
      "type": "function"
    },
    {
      "inputs": [
        {
          "internalType": "uint256",
          "name": "tokenId",
          "type": "uint256"
        }
      ],
      "name": "ownerOf",
      "outputs": [
        {
          "internalType": "address",
          "name": "",
          "type": "address"
        }
      ],
      "stateMutability": "view",
      "type": "function"
    },
    {
      "inputs": [
        {
          "internalType": "address",
          "name": "from",
          "type": "address"
        },
        {
          "internalType": "address",
          "name": "to",
          "type": "address"
        },
        {
          "internalType": "uint256",
          "name": "tokenId",
          "type": "uint256"
        }
      ],
      "name": "safeTransferFrom",
      "outputs": [],
      "stateMutability": "nonpayable",
      "type": "function"
    },
    {
      "inputs": [
        {
          "internalType": "address",
          "name": "from",
          "type": "address"
        },
        {
          "internalType": "address",
          "name": "to",
          "type": "address"
        },
        {
          "internalType": "uint256",
          "name": "tokenId",
          "type": "uint256"
        },
        {
          "internalType": "bytes",
          "name": "data",
          "type": "bytes"
        }
      ],
      "name": "safeTransferFrom",
      "outputs": [],
      "stateMutability": "nonpayable",
      "type": "function"
    },
    {
      "inputs": [
        {
          "internalType": "address",
          "name": "operator",
          "type": "address"
        },
        {
          "internalType": "bool",
          "name": "approved",
          "type": "bool"
        }
      ],
      "name": "setApprovalForAll",
      "outputs": [],
      "stateMutability": "nonpayable",
      "type": "function"
    },
    {
      "inputs": [
        {
          "internalType": "bytes4",
          "name": "interfaceId",
          "type": "bytes4"
        }
      ],
      "name": "supportsInterface",
      "outputs": [
        {
          "internalType": "bool",
          "name": "",
          "type": "bool"
        }
      ],
      "stateMutability": "view",
      "type": "function"
    },
    {
      "inputs": [],
      "name": "symbol",
      "outputs": [
        {
          "internalType": "string",
          "name": "",
          "type": "string"
        }
      ],
      "stateMutability": "view",
      "type": "function"
    },
    {
      "inputs": [
        {
          "internalType": "uint256",
          "name": "tokenId",
          "type": "uint256"
        }
      ],
      "name": "tokenURI",
      "outputs": [
        {
          "internalType": "string",
          "name": "",
          "type": "string"
        }
      ],
      "stateMutability": "view",
      "type": "function"
    },
    {
      "inputs": [
        {
          "internalType": "address",
          "name": "from",
          "type": "address"
        },
        {
          "internalType": "address",
          "name": "to",
          "type": "address"
        },
        {
          "internalType": "uint256",
          "name": "tokenId",
          "type": "uint256"
        }
      ],
      "name": "transferFrom",
      "outputs": [],
      "stateMutability": "nonpayable",
      "type": "function"
    }
  ],
  "bytecode": "0x60806040523480156200001157600080fd5b506040518060400160405280600581526020017f41694152540000000000000000000000000000000000000000000000000000008152506040518060400160405280600581526020017f414941525400000000000000000000000000000000000000000000000000000081525081600090816200008f919062000324565b508060019081620000a1919062000324565b5050506200040b565b600081519050919050565b7f4e487b7100000000000000000000000000000000000000000000000000000000600052604160045260246000fd5b7f4e487b7100000000000000000000000000000000000000000000000000000000600052602260045260246000fd5b600060028204905060018216806200012c57607f821691505b602082108103620001425762000141620000e4565b5b50919050565b60008190508160005260206000209050919050565b60006020601f8301049050919050565b600082821b905092915050565b600060088302620001ac7fffffffffffffffffffffffffffffffffffffffffffffffffffffffffffffffff826200016d565b620001b886836200016d565b95508019841693508086168417925050509392505050565b6000819050919050565b6000819050919050565b600062000205620001ff620001f984620001d0565b620001da565b620001d0565b9050919050565b6000819050919050565b6200022183620001e4565b6200023962000230826200020c565b8484546200017a565b825550505050565b600090565b6200025062000241565b6200025d81848462000216565b505050565b5b8181101562000285576200027960008262000246565b60018101905062000263565b5050565b601f821115620002d4576200029e8162000148565b620002a9846200015d565b81016020851015620002b9578190505b620002d1620002c8856200015d565b83018262000262565b50505b505050565b600082821c905092915050565b6000620002f960001984600802620002d9565b1980831691505092915050565b6000620003148383620002e6565b9150826002028217905092915050565b6200032f82620000aa565b67ffffffffffffffff8111156200034b576200034a620000b5565b5b62000357825462000113565b6200036482828562000289565b600060209050601f8311600181146200039c576000841562000387578287015190505b62000393858262000306565b86555062000403565b601f198416620003ac8662000148565b60005b82811015620003d657848901518255600182019150602085019450602081019050620003af565b86831015620003f65784890151620003f2601f891682620002e6565b8355505b6001600288020188555050505b505050505050565b612392806200041b6000396000f3fe608060405234801561001057600080fd5b50600436106100ea5760003560e01c806370a082311161008c578063b88d4fde11610066578063b88d4fde1461025b578063c87b56dd14610277578063e985e9c5146102a7578063fb37e883146102d7576100ea565b806370a08231146101f157806395d89b4114610221578063a22cb4651461023f576100ea565b8063095ea7b3116100c8578063095ea7b31461016d57806323b872dd1461018957806342842e0e146101a55780636352211e146101c1576100ea565b806301ffc9a7146100ef57806306fdde031461011f578063081812fc1461013d575b600080fd5b610109600480360381019061010491906117fd565b6102f3565b6040516101169190611845565b60405180910390f35b610127610354565b60405161013491906118f0565b60405180910390f35b61015760048036038101906101529190611948565b6103e6565b60405161016491906119b6565b60405180910390f35b610187600480360381019061018291906119fd565b610402565b005b6101a3600480360381019061019e9190611a3d565b610418565b005b6101bf60048036038101906101ba9190611a3d565b61051a565b005b6101db60048036038101906101d69190611948565b61053a565b6040516101e891906119b6565b60405180910390f35b61020b60048036038101906102069190611a90565b61054c565b6040516102189190611acc565b60405180910390f35b610229610606565b60405161023691906118f0565b60405180910390f35b61025960048036038101906102549190611b13565b610698565b005b61027560048036038101906102709190611c88565b6106ae565b005b610291600480360381019061028c9190611948565b6106cb565b60405161029e91906118f0565b60405180910390f35b6102c160048036038101906102bc9190611d0b565b6107de565b6040516102ce9190611845565b60405180910390f35b6102f160048036038101906102ec9190611dec565b610872565b005b6000634906490660e01b7bffffffffffffffffffffffffffffffffffffffffffffffffffffffff1916827bffffffffffffffffffffffffffffffffffffffffffffffffffffffff1916148061034d575061034c826108a9565b5b9050919050565b60606000805461036390611e64565b80601f016020809104026020016040519081016040528092919081815260200182805461038f90611e64565b80156103dc5780601f106103b1576101008083540402835291602001916103dc565b820191906000526020600020905b8154815290600101906020018083116103bf57829003601f168201915b5050505050905090565b60006103f18261098b565b506103fb82610a13565b9050919050565b610414828261040f610a50565b610a58565b5050565b600073ffffffffffffffffffffffffffffffffffffffff168273ffffffffffffffffffffffffffffffffffffffff160361048a5760006040517f64a0ae9200000000000000000000000000000000000000000000000000000000815260040161048191906119b6565b60405180910390fd5b600061049e8383610499610a50565b610a6a565b90508373ffffffffffffffffffffffffffffffffffffffff168173ffffffffffffffffffffffffffffffffffffffff1614610514578382826040517f64283d7b00000000000000000000000000000000000000000000000000000000815260040161050b93929190611e95565b60405180910390fd5b50505050565b610535838383604051806020016040528060008152506106ae565b505050565b60006105458261098b565b9050919050565b60008073ffffffffffffffffffffffffffffffffffffffff168273ffffffffffffffffffffffffffffffffffffffff16036105bf5760006040517f89c62b640000000000000000000000000000000000000000000000000000000081526004016105b691906119b6565b60405180910390fd5b600360008373ffffffffffffffffffffffffffffffffffffffff1673ffffffffffffffffffffffffffffffffffffffff168152602001908152602001600020549050919050565b60606001805461061590611e64565b80601f016020809104026020016040519081016040528092919081815260200182805461064190611e64565b801561068e5780601f106106635761010080835404028352916020019161068e565b820191906000526020600020905b81548152906001019060200180831161067157829003601f168201915b5050505050905090565b6106aa6106a3610a50565b8383610c84565b5050565b6106b9848484610418565b6106c584848484610df3565b50505050565b60606106d68261098b565b5060006006600084815260200190815260200160002080546106f790611e64565b80601f016020809104026020016040519081016040528092919081815260200182805461072390611e64565b80156107705780601f1061074557610100808354040283529160200191610770565b820191906000526020600020905b81548152906001019060200180831161075357829003601f168201915b505050505090506000610781610faa565b905060008151036107965781925050506107d9565b6000825111156107cb5780826040516020016107b3929190611f08565b604051602081830303815290604052925050506107d9565b6107d484610fc1565b925050505b919050565b6000600560008473ffffffffffffffffffffffffffffffffffffffff1673ffffffffffffffffffffffffffffffffffffffff16815260200190815260200160002060008373ffffffffffffffffffffffffffffffffffffffff1673ffffffffffffffffffffffffffffffffffffffff16815260200190815260200160002060009054906101000a900460ff16905092915050565b6007600081548092919061088590611f5b565b91905055506000600754905061089b338261102a565b6108a58183611123565b5050565b60007f80ac58cd000000000000000000000000000000000000000000000000000000007bffffffffffffffffffffffffffffffffffffffffffffffffffffffff1916827bffffffffffffffffffffffffffffffffffffffffffffffffffffffff1916148061097457507f5b5e139f000000000000000000000000000000000000000000000000000000007bffffffffffffffffffffffffffffffffffffffffffffffffffffffff1916827bffffffffffffffffffffffffffffffffffffffffffffffffffffffff1916145b8061098457506109838261117f565b5b9050919050565b600080610997836111e9565b9050600073ffffffffffffffffffffffffffffffffffffffff168173ffffffffffffffffffffffffffffffffffffffff1603610a0a57826040517f7e273289000000000000000000000000000000000000000000000000000000008152600401610a019190611acc565b60405180910390fd5b80915050919050565b60006004600083815260200190815260200160002060009054906101000a900473ffffffffffffffffffffffffffffffffffffffff169050919050565b600033905090565b610a658383836001611226565b505050565b600080610a76846111e9565b9050600073ffffffffffffffffffffffffffffffffffffffff168373ffffffffffffffffffffffffffffffffffffffff1614610ab857610ab78184866113eb565b5b600073ffffffffffffffffffffffffffffffffffffffff168173ffffffffffffffffffffffffffffffffffffffff1614610b4957610afa600085600080611226565b6001600360008373ffffffffffffffffffffffffffffffffffffffff1673ffffffffffffffffffffffffffffffffffffffff168152602001908152602001600020600082825403925050819055505b600073ffffffffffffffffffffffffffffffffffffffff168573ffffffffffffffffffffffffffffffffffffffff1614610bcc576001600360008773ffffffffffffffffffffffffffffffffffffffff1673ffffffffffffffffffffffffffffffffffffffff168152602001908152602001600020600082825401925050819055505b846002600086815260200190815260200160002060006101000a81548173ffffffffffffffffffffffffffffffffffffffff021916908373ffffffffffffffffffffffffffffffffffffffff160217905550838573ffffffffffffffffffffffffffffffffffffffff168273ffffffffffffffffffffffffffffffffffffffff167fddf252ad1be2c89b69c2b068fc378daa952ba7f163c4a11628f55a4df523b3ef60405160405180910390a4809150509392505050565b600073ffffffffffffffffffffffffffffffffffffffff168273ffffffffffffffffffffffffffffffffffffffff1603610cf557816040517f5b08ba18000000000000000000000000000000000000000000000000000000008152600401610cec91906119b6565b60405180910390fd5b80600560008573ffffffffffffffffffffffffffffffffffffffff1673ffffffffffffffffffffffffffffffffffffffff16815260200190815260200160002060008473ffffffffffffffffffffffffffffffffffffffff1673ffffffffffffffffffffffffffffffffffffffff16815260200190815260200160002060006101000a81548160ff0219169083151502179055508173ffffffffffffffffffffffffffffffffffffffff168373ffffffffffffffffffffffffffffffffffffffff167f17307eab39ab6107e8899845ad3d59bd9653f200f220920489ca2b5937696c3183604051610de69190611845565b60405180910390a3505050565b60008373ffffffffffffffffffffffffffffffffffffffff163b1115610fa4578273ffffffffffffffffffffffffffffffffffffffff1663150b7a02610e37610a50565b8685856040518563ffffffff1660e01b8152600401610e599493929190611ff8565b6020604051808303816000875af1925050508015610e9557506040513d601f19601f82011682018060405250810190610e929190612059565b60015b610f19573d8060008114610ec5576040519150601f19603f3d011682016040523d82523d6000602084013e610eca565b606091505b506000815103610f1157836040517f64a0ae92000000000000000000000000000000000000000000000000000000008152600401610f0891906119b6565b60405180910390fd5b805181602001fd5b63150b7a0260e01b7bffffffffffffffffffffffffffffffffffffffffffffffffffffffff1916817bffffffffffffffffffffffffffffffffffffffffffffffffffffffff191614610fa257836040517f64a0ae92000000000000000000000000000000000000000000000000000000008152600401610f9991906119b6565b60405180910390fd5b505b50505050565b606060405180602001604052806000815250905090565b6060610fcc8261098b565b506000610fd7610faa565b90506000815111610ff75760405180602001604052806000815250611022565b80611001846114af565b604051602001611012929190611f08565b6040516020818303038152906040525b915050919050565b600073ffffffffffffffffffffffffffffffffffffffff168273ffffffffffffffffffffffffffffffffffffffff160361109c5760006040517f64a0ae9200000000000000000000000000000000000000000000000000000000815260040161109391906119b6565b60405180910390fd5b60006110aa83836000610a6a565b9050600073ffffffffffffffffffffffffffffffffffffffff168173ffffffffffffffffffffffffffffffffffffffff161461111e5760006040517f73c6ac6e00000000000000000000000000000000000000000000000000000000815260040161111591906119b6565b60405180910390fd5b505050565b806006600084815260200190815260200160002090816111439190612232565b507ff8e1a15aba9398e019f0b49df1a4fde98ee17ae345cb5f6b5e2c27f5033e8ce7826040516111739190611acc565b60405180910390a15050565b60007f01ffc9a7000000000000000000000000000000000000000000000000000000007bffffffffffffffffffffffffffffffffffffffffffffffffffffffff1916827bffffffffffffffffffffffffffffffffffffffffffffffffffffffff1916149050919050565b60006002600083815260200190815260200160002060009054906101000a900473ffffffffffffffffffffffffffffffffffffffff169050919050565b808061125f5750600073ffffffffffffffffffffffffffffffffffffffff168273ffffffffffffffffffffffffffffffffffffffff1614155b1561139357600061126f8461098b565b9050600073ffffffffffffffffffffffffffffffffffffffff168373ffffffffffffffffffffffffffffffffffffffff16141580156112da57508273ffffffffffffffffffffffffffffffffffffffff168173ffffffffffffffffffffffffffffffffffffffff1614155b80156112ed57506112eb81846107de565b155b1561132f57826040517fa9fbf51f00000000000000000000000000000000000000000000000000000000815260040161132691906119b6565b60405180910390fd5b811561139157838573ffffffffffffffffffffffffffffffffffffffff168273ffffffffffffffffffffffffffffffffffffffff167f8c5be1e5ebec7d5bd14f71427d1e84f3dd0314c0f7b2291e5b200ac8c7c3b92560405160405180910390a45b505b836004600085815260200190815260200160002060006101000a81548173ffffffffffffffffffffffffffffffffffffffff021916908373ffffffffffffffffffffffffffffffffffffffff16021790555050505050565b6113f683838361157d565b6114aa57600073ffffffffffffffffffffffffffffffffffffffff168373ffffffffffffffffffffffffffffffffffffffff160361146b57806040517f7e2732890000000000000000000000000000000000000000000000000000000081526004016114629190611acc565b60405180910390fd5b81816040517f177e802f0000000000000000000000000000000000000000000000000000000081526004016114a1929190612304565b60405180910390fd5b505050565b6060600060016114be8461163e565b01905060008167ffffffffffffffff8111156114dd576114dc611b5d565b5b6040519080825280601f01601f19166020018201604052801561150f5781602001600182028036833780820191505090505b509050600082602001820190505b600115611572578080600190039150507f3031323334353637383961626364656600000000000000000000000000000000600a86061a8153600a85816115665761156561232d565b5b0494506000850361151d575b819350505050919050565b60008073ffffffffffffffffffffffffffffffffffffffff168373ffffffffffffffffffffffffffffffffffffffff161415801561163557508273ffffffffffffffffffffffffffffffffffffffff168473ffffffffffffffffffffffffffffffffffffffff1614806115f657506115f584846107de565b5b8061163457508273ffffffffffffffffffffffffffffffffffffffff1661161c83610a13565b73ffffffffffffffffffffffffffffffffffffffff16145b5b90509392505050565b600080600090507a184f03e93ff9f4daa797ed6e38ed64bf6a1f010000000000000000831061169c577a184f03e93ff9f4daa797ed6e38ed64bf6a1f01000000000000000083816116925761169161232d565b5b0492506040810190505b6d04ee2d6d415b85acef810000000083106116d9576d04ee2d6d415b85acef810000000083816116cf576116ce61232d565b5b0492506020810190505b662386f26fc10000831061170857662386f26fc1000083816116fe576116fd61232d565b5b0492506010810190505b6305f5e1008310611731576305f5e10083816117275761172661232d565b5b0492506008810190505b612710831061175657612710838161174c5761174b61232d565b5b0492506004810190505b60648310611779576064838161176f5761176e61232d565b5b0492506002810190505b600a8310611788576001810190505b80915050919050565b6000604051905090565b600080fd5b600080fd5b60007fffffffff0000000000000000000000000000000000000000000000000000000082169050919050565b6117da816117a5565b81146117e557600080fd5b50565b6000813590506117f7816117d1565b92915050565b6000602082840312156118135761181261179b565b5b6000611821848285016117e8565b91505092915050565b60008115159050919050565b61183f8161182a565b82525050565b600060208201905061185a6000830184611836565b92915050565b600081519050919050565b600082825260208201905092915050565b60005b8381101561189a57808201518184015260208101905061187f565b60008484015250505050565b6000601f19601f8301169050919050565b60006118c282611860565b6118cc818561186b565b93506118dc81856020860161187c565b6118e5816118a6565b840191505092915050565b6000602082019050818103600083015261190a81846118b7565b905092915050565b6000819050919050565b61192581611912565b811461193057600080fd5b50565b6000813590506119428161191c565b92915050565b60006020828403121561195e5761195d61179b565b5b600061196c84828501611933565b91505092915050565b600073ffffffffffffffffffffffffffffffffffffffff82169050919050565b60006119a082611975565b9050919050565b6119b081611995565b82525050565b60006020820190506119cb60008301846119a7565b92915050565b6119da81611995565b81146119e557600080fd5b50565b6000813590506119f7816119d1565b92915050565b60008060408385031215611a1457611a1361179b565b5b6000611a22858286016119e8565b9250506020611a3385828601611933565b9150509250929050565b600080600060608486031215611a5657611a5561179b565b5b6000611a64868287016119e8565b9350506020611a75868287016119e8565b9250506040611a8686828701611933565b9150509250925092565b600060208284031215611aa657611aa561179b565b5b6000611ab4848285016119e8565b91505092915050565b611ac681611912565b82525050565b6000602082019050611ae16000830184611abd565b92915050565b611af08161182a565b8114611afb57600080fd5b50565b600081359050611b0d81611ae7565b92915050565b60008060408385031215611b2a57611b2961179b565b5b6000611b38858286016119e8565b9250506020611b4985828601611afe565b9150509250929050565b600080fd5b600080fd5b7f4e487b7100000000000000000000000000000000000000000000000000000000600052604160045260246000fd5b611b95826118a6565b810181811067ffffffffffffffff82111715611bb457611bb3611b5d565b5b80604052505050565b6000611bc7611791565b9050611bd38282611b8c565b919050565b600067ffffffffffffffff821115611bf357611bf2611b5d565b5b611bfc826118a6565b9050602081019050919050565b82818337600083830152505050565b6000611c2b611c2684611bd8565b611bbd565b905082815260208101848484011115611c4757611c46611b58565b5b611c52848285611c09565b509392505050565b600082601f830112611c6f57611c6e611b53565b5b8135611c7f848260208601611c18565b91505092915050565b60008060008060808587031215611ca257611ca161179b565b5b6000611cb0878288016119e8565b9450506020611cc1878288016119e8565b9350506040611cd287828801611933565b925050606085013567ffffffffffffffff811115611cf357611cf26117a0565b5b611cff87828801611c5a565b91505092959194509250565b60008060408385031215611d2257611d2161179b565b5b6000611d30858286016119e8565b9250506020611d41858286016119e8565b9150509250929050565b600067ffffffffffffffff821115611d6657611d65611b5d565b5b611d6f826118a6565b9050602081019050919050565b6000611d8f611d8a84611d4b565b611bbd565b905082815260208101848484011115611dab57611daa611b58565b5b611db6848285611c09565b509392505050565b600082601f830112611dd357611dd2611b53565b5b8135611de3848260208601611d7c565b91505092915050565b600060208284031215611e0257611e0161179b565b5b600082013567ffffffffffffffff811115611e2057611e1f6117a0565b5b611e2c84828501611dbe565b91505092915050565b7f4e487b7100000000000000000000000000000000000000000000000000000000600052602260045260246000fd5b60006002820490506001821680611e7c57607f821691505b602082108103611e8f57611e8e611e35565b5b50919050565b6000606082019050611eaa60008301866119a7565b611eb76020830185611abd565b611ec460408301846119a7565b949350505050565b600081905092915050565b6000611ee282611860565b611eec8185611ecc565b9350611efc81856020860161187c565b80840191505092915050565b6000611f148285611ed7565b9150611f208284611ed7565b91508190509392505050565b7f4e487b7100000000000000000000000000000000000000000000000000000000600052601160045260246000fd5b6000611f6682611912565b91507fffffffffffffffffffffffffffffffffffffffffffffffffffffffffffffffff8203611f9857611f97611f2c565b5b600182019050919050565b600081519050919050565b600082825260208201905092915050565b6000611fca82611fa3565b611fd48185611fae565b9350611fe481856020860161187c565b611fed816118a6565b840191505092915050565b600060808201905061200d60008301876119a7565b61201a60208301866119a7565b6120276040830185611abd565b81810360608301526120398184611fbf565b905095945050505050565b600081519050612053816117d1565b92915050565b60006020828403121561206f5761206e61179b565b5b600061207d84828501612044565b91505092915050565b60008190508160005260206000209050919050565b60006020601f8301049050919050565b600082821b905092915050565b6000600883026120e87fffffffffffffffffffffffffffffffffffffffffffffffffffffffffffffffff826120ab565b6120f286836120ab565b95508019841693508086168417925050509392505050565b6000819050919050565b600061212f61212a61212584611912565b61210a565b611912565b9050919050565b6000819050919050565b61214983612114565b61215d61215582612136565b8484546120b8565b825550505050565b600090565b612172612165565b61217d818484612140565b505050565b5b818110156121a15761219660008261216a565b600181019050612183565b5050565b601f8211156121e6576121b781612086565b6121c08461209b565b810160208510156121cf578190505b6121e36121db8561209b565b830182612182565b50505b505050565b600082821c905092915050565b6000612209600019846008026121eb565b1980831691505092915050565b600061222283836121f8565b9150826002028217905092915050565b61223b82611860565b67ffffffffffffffff81111561225457612253611b5d565b5b61225e8254611e64565b6122698282856121a5565b600060209050601f83116001811461229c576000841561228a578287015190505b6122948582612216565b8655506122fc565b601f1984166122aa86612086565b60005b828110156122d2578489015182556001820191506020850194506020810190506122ad565b868310156122ef57848901516122eb601f8916826121f8565b8355505b6001600288020188555050505b505050505050565b600060408201905061231960008301856119a7565b6123266020830184611abd565b9392505050565b7f4e487b7100000000000000000000000000000000000000000000000000000000600052601260045260246000fdfea264697066735822122054ff77bb63776a967d978e5b93d98c329f1d2384c6f2a9011b48e01af4d0e31164736f6c63430008180033",
  "linkReferences": {},
  "deployedLinkReferences": {}
}